S01C000041746D65676138415F4B756D65734B61706973692E737265637B
S113000012C0A1C02BC02AC029C028C0E5C226C086
S113001025C0A9C223C0F6C221C320C01FC01EC070
S11300201DC01CC01BC011241FBECFE5D4E0DEBF21
S1130030CDBF10E0A0E6B0E0EEE9F7E002C0059025
S11300400D92A436B107D9F720E0A4E6B0E001C0D0
S11300501D92A03CB207E1F702D09FC3D1CF72D268
S113006000D177D105D2A3D1A895FACF86E487B978
S113007086EC86B910BE80E0089597B1907F97B959
S113008097B1892B87B9369A089586B18295817084
S1130090089584B125B190E0922B0895EEDFF5DF49
S11300A08823E9F3F6DF349A089581B3806681BB2F
S11300B0B99A0895BD9A8E9ABA9A0895959A96987F
S11300C0C19A0895969A9598C19A08959598969884
S11300D0C198089586B3869581700895A09A08956D
S11300E08B988C98939A949A08958BB780648BBF5D
S11300F085B7836085BF829A929AA39A0895999A44
S1130100A29A0895AB9A0895AB980895AA98089571
S1130110AA9A08959A9904C083B386958170089524
S113012081E00895A89A0895A898089580B38295C7
S1130130817091E08927089580B383FB882780F933
S113014091E0892708951F920F920FB60F92112400
S11301508F938091B500882331F08091AB008F5F3D
S11301608093AB0005C08091AB0081508093AB00BD
S11301708F910F900FBE0F901F9018958091A9003A
S11301809091AA000097F1F48091AC009091AD0099
S113019001969093AD008093AC001092BE00209124
S11301A0AF003091B000A901445C5F4F4817590774
S11301B0E0F41092BB00235C3F4F3093AD002093DA
S11301C0AC000895C29788F08091BE008F5F809341
S11301D0BE001092AD001092AC008D3334F081E07B
S11301E08093BB008DE38093BE0008958091AB00A3
S11301F082333CF48BDF86DF65DF81E08093B500DA
S1130200089564DF85DF80DF08958091AB001816C0
S11302102CF478DF53DF1092B500089557DF74DFB4
S113022008958091AB00811109C080DF811106C05F
S11302308091AB008C5F8093AB0008958091AB00FC
S1130240823331F479DF811103C08EE28093AB00F5
S113025008958091BB00882311F0D7DF0895C6DF8D
S1130260089564DF882351F01092AB0088E78093EF
S1130270AE001092B1001092B70008955DDF88239C
S113028059F082E38093AB0080E48093AE00109237
S1130290B1001092B70008958091AB0088231CF43C
S11302A01092AB00089583331CF082E38093AB007B
S11302B0089530DF811107C085E48093B90032DFEF
S11302C01092B60008958091B100882361F0809166
S11302D0B700843024F483E58093B900089584E45E
S11302E08093B90008958091B600863034F086E09A
S11302F08093B6008FE48093B90016DF0895D9DFA8
S11303008091B900853469F018F4843431F008958B
S11303108F3481F08335A9F00895D8DEF9DEF4DE58
S113032008950ADF811102C070DF089586E080938A
S1130330B60008958EDF8091B300811109C071DF8A
S113034008958091B800882311F05FDF08954EDF8F
S113035008958091BF00813031F018F0823029F087
S1130360089553DF0895CBDF089540DF0895B2DE8A
S11303708823C1F09091AB008091BD00981310C008
S113038081E08093B1008091B5008093B80088E04B
S11303908093AE008091B7008F5F8093B70002C056
S11303A01092B1008091AB008093BD0008958091BC
S11303B0B400882311F0B6DE0895B6DE0895CF9315
S11303C0DF93CDB7DEB727970FB6F894DEBF0FBE25
S11303D0CDBF4AE0BE016F5F7F4F8091A90090912D
S11303E0AA00A8D180E690E083D1CE01019680D105
S11303F080E690E07DD14AE0BE016F5F7F4F80913F
S1130400AC009091AD0096D1CE01019671D180E6F9
S113041090E06ED14AE0BE016F5F7F4F8091AF00E4
S11304209091B00087D1CE01019662D180E690E030
S11304305FD18091AB004AE0BE016F5F7F4F082E11
S1130440000C990B77D1CE01019652D180E690E051
S11304504FD18091B9003BD182E690E049D12796F3
S11304600FB6F894DEBF0FBECDBFDF91CF910895D4
S11304708091BC00882331F18091B300882329F155
S11304801092B3008091B6008F5F8093B60086E02F
S113049005DE9093AA008093A90087E0FFDD64E560
S11304A071E034D16093BF0084E0F8DD880F991FB8
S11304B0880F991F9093B0008093AF005FDE57DFE1
S11304C07EDF089581E08093B3000895479A85B74D
S11304D0846085BF85B7806285BF08951092AA00A5
S11304E01092A9001092AD001092AC001092BE00C0
S11304F088E78093AE001092AB001092B70081E0C1
S11305008093BB008FE48093B90002DE08959EE0DF
S113051088E10FB6F894A89581BD0FBE91BD0895EA
S113052083B7856083BF89B7816089BF08958EB51D
S11305308D608EBD82E49FE09BBD8ABD89B78061DA
S113054089BF0895CBDFB6DDB0DD90DDE0DFC8DD27
S1130550C5DD8CE090E0A7D0EADFE2DFC6DDCFDDC9
S1130560B5DF789408951F920F920FB60F9211245D
S11305702F934F935F938F939F938091BA008F5FD4
S11305808093BA002091AE00082E000C990B422FE4
S113059050E0481759077CF48091B400882329F06F
S11305A01092BA001092B40006C023502093BA00EF
S11305B081E08093B4008091B20018161CF481503D
S11305C08093B2009F918F915F914F912F910F90E3
S11305D00FBE0F901F9018951F920F920FB60F9297
S11305E011248F938091BC00882319F01092BC00D1
S11305F003C081E08093BC008F910F900FBE0F90D9
S11306001F9018951F920F920FB60F9211242F93DB
S11306108F939F93EF93FF938BB12CB18C71E091E7
S11306206600EF5FEF7190916500E91739F0E09390
S11306306600F0E0E759FF4F208301C082E090910B
S11306406400892B80936400FF91EF919F918F91B7
S11306502F910F900FBE0F901F9018951F920F921D
S11306600FB60F9211248F939F93EF93FF93909162
S1130670680080916700981761F0E0916700EF5F70
S1130680EF71E0936700F0E0E757FF4F80818CB98A
S113069001C05598FF91EF919F918F910F900FBEDC
S11306A00F901F9018951092680010926700109296
S11306B0660010926500992314F422E02BB9907817
S11306C090BD89B988E98AB986E880BD08952091EA
S11306D068002F5F2F71909167002917E1F3E22FD3
S11306E0F0E0E757FF4F808320936800559A089500
S11306F0CF93DF93EC018881882329F02196E7DFEB
S113070089918111FCCFDF91CF910895AA1BBB1B66
S113071051E107C0AA1FBB1FA617B70710F0A61BFD
S1130720B70B881F991F5A95A9F780959095BC011E
S1130730CD010895BB274A3031F4992322F4BDE258
S1130740909581959F4F01C0BB27FB015527AA2790
S1130750880F991FAA1FA41710F0A41B839550514A
S1130760B9F7A05DAA3308F0A95DA193009779F7C2
S1130770B111B1931192CB0100C0DC01FC01672FD0
S113078071917723E1F7329704C07C916D93708364
S11107906291AE17BF07C8F30895F894FFCF27
S107079E09000A0040
S9030000FC
