:1000000012C0A1C02BC02AC029C028C0B9C226C0B6
:1000100025C07DC223C0CAC2F5C220C01FC01EC0F9
:100020001DC01CC01BC011241FBECFE5D4E0DEBF25
:10003000CDBF10E0A0E6B0E0E6E4F7E002C0059036
:100040000D92A436B107D9F720E0A4E6B0E001C0D4
:100050001D92AD3BB207E1F702D073C3D1CF46D2B8
:10006000EFD067D1E5D193D1A895FACF86E487B9CF
:1000700086EC86B910BE80E0089597B1907F97B95D
:1000800097B1892B87B9369A089586B18295817088
:10009000089584B125B190E0922B0895EEDFF5DF4D
:1000A0008823E9F3F6DF349A089581B3806681BB33
:1000B000B99A0895BD9A8E9ABA9A0895959A969883
:1000C000C19A0895969A9598C19A08959598969888
:1000D000C198089586B3869581700895A09A089571
:1000E0008B988C98939A949A08958BB780648BBF61
:1000F00085B7836085BF829A929AA39A0895999A48
:10010000A29A0895AB9A0895AB980895AA98089575
:10011000AA9A08959A9904C083B386958170089528
:1001200081E00895A89A0895A898089580B38295CB
:10013000817091E08927089580B383FB882780F937
:1001400091E0892708951F920F920FB60F92112404
:100150008F938091B200882331F08091AB008F5F44
:100160008093AB0005C08091AB0081508093AB00C1
:100170008F910F900FBE0F901F9018958091A9003E
:100180009091AA00009779F48091AC008F5F8093E2
:10019000AC001092BB008D33BCF01092B8008DE320
:1001A0008093AC000895C29778F08091BB008F5F78
:1001B0008093BB001092AC008D3334F081E08093CB
:1001C000B8008DE38093BB0008958091AB0082332B
:1001D0003CF49CDF97DF76DF81E08093B2000895E6
:1001E00075DF96DF91DF08958091AB0018162CF42F
:1001F00089DF64DF1092B200089568DF85DF08951B
:100200008091AB00811109C091DF811106C08091FE
:10021000AB008C5F8093AB0008958091AB0082337C
:1002200031F48ADF811103C08EE28093AB00089520
:100230008091B800882311F0D7DF0895C6DF0895B4
:1002400075DF882351F01092AB0088E78093AD00F2
:100250001092AE001092B40008956EDF882359F01A
:1002600082E38093AB0080E48093AD001092AE00F7
:100270001092B40008958091AB0088231CF4109272
:10028000AB00089583331CF082E38093AB000895A4
:1002900041DF811107C085E48093B60043DF1092EF
:1002A000B30008958091AE00882379F08091B40066
:1002B000843024F483E58093B600089584E4809329
:1002C000B60082E38093AB0008958091B30086303E
:1002D00034F086E08093B3008FE48093B60024DF8F
:1002E0000895D6DF8091B600853459F018F484342F
:1002F00031F008958F3471F0833599F00895E6DE7A
:1003000008951ADF811102C06FDF089586E080939F
:10031000B30008958DDF8091B000811109C070DFB6
:1003200008958091B500882311F05EDF08954DDFB8
:1003300008958091BC00813031F018F0823029F0AE
:10034000089552DF0895CDDF08953FDF0895C2DE9E
:100350008823C1F09091AB008091BA00981310C02F
:1003600081E08093AE008091B2008093B50088E078
:100370008093AD008091B4008F5F8093B40002C081
:100380001092AE008091AB008093BA0008958091E6
:10039000B100882311F0C6DE0895C6DE0895CF931C
:1003A000DF93CDB7DEB727970FB6F894DEBF0FBE49
:1003B000CDBF4AE0BE016F5F7F4F8091A900909151
:1003C000AA008CD180E690E067D1CE01019664D17D
:1003D00080E690E061D18091BC004AE0BE016F5F91
:1003E0007F4F90E07BD1CE01019656D180E690E020
:1003F00053D18091AB004AE0BE016F5F7F4F082E62
:10040000000C990B6BD1CE01019646D180E690E0AD
:1004100043D18091B6002FD182E690E03DD127965E
:100420000FB6F894DEBF0FBECDBFDF91CF91089518
:100430008091B9008823E1F08091B0008823D9F041
:100440001092B0008091B3008F5F8093B30086E07C
:1004500025DE9093AA008093A90087E01FDE64E563
:1004600071E028D16093BC0089DE71DF98DF0895C8
:1004700081E08093B0000895479A85B7846085BF76
:1004800085B7806285BF08951092AA001092A900D6
:100490001092AC001092BB0088E78093AD001092E0
:1004A000AB001092B40081E08093B8008FE4809399
:1004B000B6002EDE08959EE088E10FB6F894A89568
:1004C00081BD0FBE91BD089583B7856083BF89B795
:1004D000816089BF08958EB58D608EBD82E49FE0F6
:1004E0009BBD8ABD89B7806189BF0895CDDFE2DDFC
:1004F000DCDDBCDDE0DFF4DDF1DD8CE090E0A7D0F9
:10050000EADFE2DFF2DDFBDDB7DF789408951F92CA
:100510000F920FB60F9211242F934F935F938F93E7
:100520009F938091B7008F5F8093B7002091AD00BB
:10053000082E000C990B422F50E0481759077CF405
:100540008091B100882329F01092B7001092B10079
:1005500006C023502093B70081E08093B1008091C2
:10056000AF0018161CF481508093AF009F918F91BB
:100570005F914F912F910F900FBE0F901F90189584
:100580001F920F920FB60F9211248F938091B90092
:10059000882319F01092B90003C081E08093B9005C
:1005A0008F910F900FBE0F901F9018951F920F9272
:1005B0000FB60F9211242F938F939F93EF93FF9376
:1005C0008BB12CB18C71E0916600EF5FEF7190916F
:1005D0006500E91739F0E0936600F0E0E759FF4F56
:1005E000208301C082E090916400892B8093640095
:1005F000FF91EF919F918F912F910F900FBE0F90D0
:100600001F9018951F920F920FB60F9211248F937F
:100610009F93EF93FF9390916800809167009817E4
:1006200061F0E0916700EF5FEF71E0936700F0E049
:10063000E757FF4F80818CB901C05598FF91EF912A
:100640009F918F910F900FBE0F901F901895109251
:10065000680010926700109266001092650099235E
:1006600014F422E02BB9907890BD89B988E98AB951
:1006700086E880BD0895209168002F5F2F719091CA
:1006800067002917E1F3E22FF0E0E757FF4F80837F
:1006900020936800559A0895CF93DF93EC018881E9
:1006A000882329F02196E7DF89918111FCCFDF9122
:1006B000CF910895AA1BBB1B51E107C0AA1FBB1F06
:1006C000A617B70710F0A61BB70B881F991F5A95DE
:1006D000A9F780959095BC01CD010895BB274A30BC
:1006E00031F4992322F4BDE2909581959F4F01C08A
:1006F000BB27FB015527AA27880F991FAA1FA417FC
:1007000010F0A41B83955051B9F7A05DAA3308F0EF
:10071000A95DA193009779F7B111B1931192CB0123
:1007200000C0DC01FC01672F71917723E1F732975C
:1007300004C07C916D9370836291AE17BF07C8F3BC
:060740000895F894FFCFBC
:0407460009000A009C
:00000001FF
